:020000040800F2
:10000000B82B0020C1010008EB4D0008C53E0008D8
:10001000E94D0008210B00084578000800000000A9
:100020000000000000000000000000009B5F0008CE
:10003000EF16000800000000F95A00088563000868
:10004000DB010008DB010008DB010008DB01000820
:10005000DB010008DB010008DB010008DB01000810
:10006000DB010008DB010008DB010008DB01000800
:10007000F1150008DB010008FD150008DB01000890
:10008000DB010008DB010008DB010008310B000880
:10009000250B0008DB010008DB010008DB0100087C
:1000A000DB010008DB010008DB010008DB010008C0
:1000B0004D640008DB010008DB010008DB010008DB
:1000C000DB010008DB010008DB010008DB010008A0
:1000D000DB010008F57700080D78000819780008A2
:1000E000DB010008DB010008DB0100086564000893
:1000F000896400087D64000871640008DB01000861
:10010000DB010008DB010008DB010008DB0100085F
:10011000DB010008DB01000859640008DB0100086E
:10012000DB010008DB0100080916000815160008AD
:1001300021160008DB010008DB010008490B00085C
:100140003D0B0008DB010008DB010008DB010008B3
:10015000DB010008DB010008DB010008257800084E
:10016000DB010008DB010008DB010008DB010008FF
:10017000DB010008DB010008DB01000800000000D3
:10018000DB010008DB010008A9670008DB010008AB
:10019000DB010008C95E0008DB010008DB01000884
:1001A0000000000000000000DB010008DFF80CD0B8
:1001B00000F09CFB00480047D19E0008B82B0020AF
:1001C0000648804706480047FEE7FEE7FEE7FEE7F1
:1001D000FEE7FEE7FEE7FEE7FEE7FEE73D64000818
:1001E000AD01000840EA01039B0703D009E008C9FC
:1001F000121F08C0042AFAD203E011F8013B00F8EC
:10020000013B521EF9D27047D2B201E000F8012B37
:10021000491EFBD270470022F6E710B513460A4686
:1002200004461946FFF7F0FF204610BD2DE9FE4FAA
:10023000804681EA0300C00F0C46009021F0004187
:1002400023F00045B8EB0200A94105D24046214603
:1002500090461C460B46024623F00040104347D010
:10026000270DC7F30A00C3F30A510290401A019008
:1002700040286BDAC3F3130040F4801B00989246C9
:1002800020B10023D2EB030A63EB0B0B0198594614
:10029000C0F14002504600F034FA06460D46504682
:1002A0005946019A00F04CFA10EB08006141002415
:1002B00087EA115284EAE7731A4340D0009A62B386
:1002C000019A012A4FEA075215DC001B61EB02017B
:1002D0004FF0004202EA0752CDE90042001C41F50E
:1002E000801132462B4600F083FA03B0BDE8F08F50
:1002F00040462146F9E7001B61EB0201001C41F575
:10030000801300185B412018A2F5001747EB03018A
:1003100040EAD570B6196D4111E06D084FEA360616
:1003200045EAC0754FEA0752001B61EB0201001C51
:1003300041F5801149084FEA300000195141324619
:100340002B4603B0BDE8F04F00F043BA00980122FD
:1003500040000023D0EB020263EBE07300982146DB
:100360004FEAE074B8EB000061EB0401E9E783F0C9
:1003700000435BE781F0004158E72DE9FE4F81EA39
:10038000030404F0004421F0004100944FF0000BFE
:1003900023F0004350EA01045ED052EA03045BD02C
:1003A000C3F30A54C1F30A552C44A4F2F334019464
:1003B000A0FB0254C1F3130141F48011C3F31303F2
:1003C00043F4801301FB024400FB034E840A970AA6
:1003D00044EA815447EA8357A4FB076802958D0AD3
:1003E00005FB07854FEA932C04FB0C542705029D5F
:1003F0004FEA065847EA1637B5EB08056EEB070CCF
:10040000870E920E47EA811742EA8312A7FB020188
:10041000B6EB0B0164EB00042B0D43EA0C335E18C2
:1004200044EB1C50DA465146E7FB0201C5F31304C6
:100430004FEA0B3343EA14534FEA0432019C43EA78
:100440000603A4F10C040294009CCDE900B400F072
:10045000CFF903B0BDE8F08F00200146F9E72DE9A0
:10046000F04D81EA030404F0004B21F000451446EE
:100470004FF0000A23F0004150EA050220D054EA70
:1004800001021DD0C5F30A570246C5F31303C1F399
:100490001300C1F30A5640F4801543F48013A7EB10
:1004A0000608101BD64608F2FD3873EB050002D390
:1004B00008F1010801E092185B41B8F1000F03DA7E
:1004C00000200146BDE8F08D00204FF48011064663
:1004D00084460EE0171B73EB050705D3121B63EB75
:1004E000050306434CEA010C49084FEA3000921814
:1004F0005B4150EA0107EDD152EA030012D082EAD3
:10050000040083EA0501084305D0101BAB4106D265
:100510000122002306E000224FF0004302E06FF0CA
:10052000010253101AEB06004CEB085110EB0A00C5
:1005300041EB0B01BDE8F04D00F04BB90EB5C10F1A
:1005400080EAE0700844CA07002140F233438DE896
:100550000E000A460B4600F04BF903B000BD0EB585
:1005600040F2334102910021CDE900110A460B46C9
:1005700000F03EF903B000BD70B5C1F30A5201F0BE
:1005800000450024C1F3130140F2FF3341F4801110
:100590009A4201DA002070BD40F233439A42A2F23F
:1005A000334203DC524200F0BBF800E090402C43A1
:1005B000F1D0404270BD00F0004230F000400AD05F
:1005C000C10D01F56071C0F3160042EA0151C20885
:1005D00040071143704700200146704730B5041EA4
:1005E00071F1000404DB4FF00044404264EB010170
:1005F000141E73F1000405DB1C464FF00043524209
:1006000063EB04038B4208BF824230BD30B5041E49
:1006100071F1000404DB4FF00044404264EB01013F
:10062000141E73F1000405DB1C464FF000435242D8
:1006300063EB0403994208BF904230BD01F00043D0
:1006400030B421F0004150EA010206D00A0DA2F5B3
:100650006072C1F31301002A02DC30BC0020704735
:10066000440F44EAC104C100E01830BC00EBC250A2
:1006700000F078B830B50B46014600202022012456
:1006800009E021FA02F59D4205D303FA02F5491B60
:1006900004FA02F52844151EA2F10102F1DC30BD76
:1006A0002DE9F05F0546002092469B4688460646A7
:1006B000814640241BE0284641464746224600F03A
:1006C0002FF853465A46C01A914110D31146184686
:1006D000224600F016F82D1A67EB01084F46224615
:1006E0000120002100F00DF817EB00094E41201EFB
:1006F000A4F10104DFDC484631462A464346BDE802
:10070000F09F202A04DB203A00FA02F10020704713
:100710009140C2F1200320FA03F31943904070473F
:10072000202A04DB203A21FA02F00021704721FA46
:1007300002F3D040C2F120029140084319467047AD
:10074000202A06DBCB17203A41FA02F043EAE07395
:1007500006E041FA02F3D040C2F120029140084382
:10076000194670470029A8BF7047401C490008BFC0
:1007700020F00100704710B4B0FA80FC00FA0CF0D1
:1007800050EA010404BF10BC704749B1CCF1200409
:1007900021FA04F411FA0CF118BF01212143084396
:1007A000A3EB0C01CB1D4FEA00614FEA102042BFC2
:1007B000002010BC704700EBC35010440029A4BFB8
:1007C00010BC7047401C490008BF20F0010010BC5D
:1007D000704710B5141E73F1000408DA401C41F193
:1007E000000192185B411A4301D120F0010010BDB5
:1007F0002DE9F04D92469B4611B1B1FA81F202E02B
:10080000B0FA80F220329046FFF77BFF04460F4695
:1008100040EA0A0041EA0B0153465A46084313D006
:10082000114653EA010019D0C8F140025046FFF7C3
:1008300077FF05460E46504659464246FFF761FF90
:10084000084305D0012004E020463946BDE8F08D7C
:100850000020054346EAE0762C4337430A986305B7
:10086000E40AA0EB08000022FD0A44EA47540A30DB
:1008700002D500200146E9E7010510196941DDE9CB
:10088000084500196941BDE8F04DA2E770B521F0B7
:10089000004303430CD0C1F30A550024D5EB0405F3
:1008A00064EB0403D617AD1AB34102DB0020014606
:1008B00070BD201841EB025170BDC1F30A52C1F363
:1008C000130140F2FF3341F480119A4202DA002012
:1008D0000146704740F233439A42A2F2334202DCAF
:1008E0005242FFF71DBFFFF70CBF0000064C074D3B
:1008F00006E0E06840F0010394E8070098471034F0
:10090000AC42F6D3FFF756FCE0A8000800A90008A7
:100910002DE9F04D00231A461B1A8A4103DB002003
:100920000146BDE8F08DC1F30A52C1F3130141F451
:1009300080154FF0000BD10702D100186D41521EF7
:100940000027044640F2FF11384601EB620A3E469A
:100950008046024600204FF48011FFF7E1FEC219E5
:100960007141BB1846EB0100B4EB030C75EB000CB6
:1009700004D3E41A65EB000517460E46241908F166
:1009800001006D4180463428E3DDF91946EB06008D
:10099000091BA84103D24FF0FF32134601E00022A9
:1009A00013461BEB070046EB0A51BDE8F04DFFF77D
:1009B00010BF30B58C1810F8012B12F00F0301D1C5
:1009C00010F8013B120906D110F8012B03E010F8D2
:1009D000015B01F8015B5B1EF9D101E001F8013B0D
:1009E000521EFBD1A142E6D3002030BD4A4910B5CA
:1009F000D1F8042322F44032C1F80423D1F80423AF
:100A000043681A43C1F8042301684A6822F48072DB
:100A10004A6001684A68036942EA03224A60016841
:100A20004A6822F040724A6001684A6883681A4343
:100A30004A6001688A6822F400628A6001688A68F4
:100A4000C3681A438A60816A6FF07062D14201689C
:100A50008A6822F070628A6001688A680CD0836AB2
:100A60001A438A6001688A6822F040528A600168ED
:100A70008A68C36A1A4301E022F040528A60016822
:100A80008A6822F002028A6001688A68836942EA01
:100A900043028A60016A002901684A6815D042F45D
:100AA00000624A6001684A6822F460424A60016854
:100AB0004B684FF46044426A94FAA4F4B4FA84F4A4
:100AC000521EA24013434B6002E022F400624A60CF
:100AD0000168CA6A22F47002CA620168CA6A838B1A
:100AE0000E4C04EB03531A43CA6201688A6822F46D
:100AF00000728A6001688A68036B42EA43228A6056
:100B000001688A6822F480628A6001688A684069A4
:100B100042EA8020886010BD002001400000F0FF04
:100B2000FEE70000014801F0CDB80000A41E00203F
:100B3000014801F0C7B80000A41E0020014801F0E0
:100B4000C1B80000E41E0020014801F0BBB800005D
:100B5000E41E002010B54FF4D872036802EB0112B6
:100B60009B5813F00404436B9C600468436BA458C7
:100B700054D0E4085C6003689A58436B02F00202A8
:100B8000DA604FF4DA72036802EB01129B58446B8F
:100B900003F00F03236103689A58436BC2F30722E3
:100BA000DA614FF4DC72036802EB01129B58446B6C
:100BB000237503689B58446B1B0A637503689B5835
:100BC000446B1B0CA37503689A58436B120EDA75BD
:100BD0004FF4DE72036802EB01129B58446B2376DC
:100BE00003689B58446B1B0A637603689B58446BED
:100BF0001B0CA37603689A58436B120EDA762022F8
:100C0000002901680DD00A6101684A6922F01002CA
:100C10004A6190F83810222909D021E0640D1C6047
:100C2000A9E7CA6001684A6922F00202F0E7016898
:100C30004A6922F480724A6101684A6922F40072AA
:100C40004A6101684A6922F480624A6101684A691E
:100C500022F400624A6101684A6922F400424A6152
:100C600090F83810322906D0012180F8381001F0B0
:100C7000E7F9002010BD1221F7E7F0B4076BDDE9BA
:100C800004540026FE60076BBE60066B3160066B85
:100C900008213161066B110A3175016B4A75026BCF
:100CA000190A9175016BCB75026B290A1176016BDC
:100CB0004D76026B210A9176016BCC76F0BC6421F3
:100CC00001F088BA10B501684A6922F001024A6150
:100CD00090F83810122918D101684A6922F48072FC
:100CE0004A6101684A6922F400724A6101684A69EE
:100CF00022F480624A6101684A6922F400624A6112
:100D000001684A6922F400424A6190F83810322999
:100D100006D0012180F8381001F01CFB002010BD26
:100D20002221F7E7F0B514212DED088B83B00820C0
:100D300000F03EFDA34C6080FFF711FC9FEDA21B6D
:100D400053EC112BFFF719FBFFF778FC00EE100AAC
:100D500084ED0D0ADFED9E0AB2EE041A9D4840EEC6
:100D6000410A9F4AC4ED0C0AB0F90000A0639A48FA
:100D7000417A9A4803290FD0012902D0117801291C
:100D80007DD10122042101F0C3FD03B0BDEC088B2D
:100D9000BDE8F04005F010B992F90010491CEDD102
:100DA0000022042101F0B4FDE069A56BC0F52A61C1
:100DB0008C4EA94202DD0846E16204E000F52A609B
:100DC000854214DDE062FFF7B9FB41EC180B2846C1
:100DD000FFF7B4FB41EC100B0021B0EE481AF0EE27
:100DE000681A804804F056F996ED100B03E09FED69
:100DF0007E0B86ED100B9FED7E1B51EC100B53EC20
:100E0000112BFFF7BAFA0F4694ED128B94ED109B5D
:100E1000054647EC1B0B53EC182B51EC190BFFF755
:100E200005FA53EC1B2BFFF701FA9FED73AB53EC64
:100E30001A2BFFF7A2FAFFF79FFB06B2A68047EC3A
:100E40001B5B53EC192B51EC180BFFF790FA53EC8A
:100E50001B2BFFF7EBF953EC1A2BFFF78EFAFFF77A
:100E60008BFBE08047EC1B5B51EC190B81F00041E0
:100E700053EC182BFFF77BFA53EC1B2B00E09CE0A4
:100E8000FFF7D4F953EC1A2BFFF777FAFFF774FB4F
:100E9000208147EC1B5B53EC182B51EC190BFFF72F
:100EA00066FA53EC1B2BFFF7C1F953EC1A2BFFF733
:100EB00064FAFFF761FB20803046FFF73FFB41EC0F
:100EC000180B4F48B0F90000FFF738FB41EC100B4E
:100ED0000121B0EE481AF0EE681A4A4804F0DAF838
:100EE000B4F90600FFF72AFB41EC180B4648B0F9AD
:100EF0000000FFF723FB41EC100B0121B0EE481A74
:100F0000F0EE681A414804F0C5F8B4F90800FFF79C
:100F100015FB41EC180B3E48B0F90000FFF70EFB43
:100F200041EC100B0121B0EE481AF0EE681A394876
:100F300004F0B0F8B4F90000FFF700FB41EC180B27
:100F40003548B0F90000FFF7F9FA41EC100B012128
:100F5000B0EE481AF0EE681A304804F09BF83048BA
:100F60000068012827D12D4890ED100B51EC100B93
:100F7000FFF702FB07B2274890ED100B51EC100B66
:100F8000FFF7FAFA06B2214890ED100B51EC100B66
:100F9000FFF7F2FA05B21B4890ED100B51EC100B65
:100FA000FFF7EAFA02B22B464FF400711D48CDE973
:100FB0000067FFF762FE0020A06203B0BDEC088B63
:100FC000F0BD0000200200206666666666664A3F45
:100FD0009A99C94174060020A81300200008024015
:100FE0008B010020F812002000000000000000002B
:100FF000666666666666E63F000000000000144014
:10100000F4040020B8070020340500205808002010
:1010100074050020F8080020B4050020980900207D
:10102000A0020020A41E00202DE9F04F0024DDE9DD
:101030000EA5DDE90B6BDDE9097EDDF8349006E0F5
:1010400000EB040815F801CB88F80FC0641CB4420B
:10105000F6D3002406E0C4F1020C641C00F80C5026
:10106000032C02DA0D5D002DF5D110F8031F41F0BD
:10107000380162F302010170018863F38911018074
:10108000417867F38501417082886BF309028280A1
:10109000B0F8052069F38C02A0F80520C2886AF335
:1010A0004F12C280B0F801206EF38E12A0F801201A
:1010B000418866F3CF114180BDE8F08F0FB44FF641
:1010C000FF7030B591B03022ADF8380014A96846F1
:1010D000FFF788F8A5208DF83000274C3320ADF8B5
:1010E000310020780CAD8DF83300FF220421284612
:1010F00000F08CFB8DF8340040F20130ADF8350083
:101100004FF48870ADF83C001C48BDF8382007212A
:101110000078ADF83E0040F26910ADF84000284676
:1011200000F05EFBADF838000FAB02460621184612
:1011300000F056FBADF8380002462D21684600F05D
:101140004FFBADF838000CA8072105F05BFE0FA897
:10115000062105F057FE68462D2105F053FE0EA826
:10116000022105F04FFE2078401C207011B00020B5
:1011700030BC5DF814FB000014030020F1020020D5
:101180002DE9F0470024DDE90A96DDE908C7DDF81E
:1011900030A006E0C4F10208641C00F80850032CDB
:1011A00002DA0D5D002DF5D110F8031F21F0380192
:1011B000103162F302010170018863F3891101802B
:1011C00041786CF385014170818867F30901818062
:1011D000B0F8052069F38C02A0F80520C18866F3F9
:1011E0004F11C18002896AF309020281BDE8F087CC
:1011F0002DE9F04F824900202DED068B83B0087059
:10120000804908708048B0F90000A0F5B050A838B7
:10121000FFF794F97D4DDFF8F8B17E4CC5E9000188
:10122000BBF9000041F69121884203DDA0F528506A
:10123000A03801E0A0F52A60FFF780F9C4E90401B5
:101240007548764E764F90ED000BDFF8D88186ED2D
:10125000000B9FED75AB9FED768BDFF8DC91DFF82F
:10126000DCA12068E8BB9FED760B53EC102B94EDCE
:10127000040B51EC100BFFF780F841EC100B9FEDC5
:10128000729B3846B0EE491AF0EE691A04F018F86D
:10129000D8F80000FFF78FF953EC1A2BFFF7DFF8AF
:1012A00053EC182BFFF769F841EC100B97ED101B6E
:1012B000674804F005F8B0EE491AF0EE691A95EDAA
:1012C000000B484603F0FCFFDAF80000FFF773F963
:1012D00053EC1A2BFFF7C3F853EC182BFFF74DF81C
:1012E00000E006E041EC100B99ED101B594803F0AB
:1012F000E7FFBBF90000A0F679204F2802D20120B9
:10130000206002E02068012859D1534890ED000B7D
:1013100051EC100B81F0004196ED000B41EC190BE4
:1013200053EC182B51EC100BFFF727F841EC100B86
:10133000B0EE491AF0EE691A394803F0C1FFD8F847
:101340000000FFF738F953EC1A2BFFF788F853EC3D
:10135000182BFFF712F841EC100B97ED101B3C48CF
:1013600003F0AEFF3D4890ED000B51EC100B81F007
:10137000004195ED000B41EC190B53EC182B51EC8F
:10138000100BFEF7FAFF41EC100BB0EE491AF0EE2D
:10139000691A294803F094FFDAF80000FFF70BF907
:1013A00053EC1A2BFFF75BF853EC182BFEF7E5FF15
:1013B00041EC100B99ED101B264803F081FF2548E6
:1013C00090ED100B51EC100BFFF7D6F804B220484B
:1013D00090ED100B51EC100BFFF7CEF802B2204845
:1013E00000212346B0F90000CDE9000140F2FF11D1
:1013F0001C48FFF742FC03B0BDEC068BBDE8F08F44
:101400008802002089020020B4060020700200201B
:1014100074060020A0020020E404002098020020AE
:10142000180C002028000020000000606666404084
:10143000CDCCCCCCCCCCFC3FF80D00202000002043
:101440007B14AE47E17A843F0000000000000000FA
:10145000780B0020580D0020800200207802002028
:1014600000020020A41E002070B51B48407A03280B
:1014700001D001282FD1194D2878012813D11A4CF9
:101480009FED170B194884ED180B80ED000B9FEDB5
:10149000180B53EC102B94ED140B51EC100BFEF7C2
:1014A0006CFFC4E9160114480068012801D11349F2
:1014B000087000202870124801681248B0F9000036
:1014C00008F0CCFAFFF794FEBDE87040012251030A
:1014D0000D4801F01DBA70BDA8130020D8020020ED
:1014E000000000000000000020020020E4040020B2
:1014F000CDCCCCCCCCCCFC3FA0020020D002002034
:10150000AC0100209E01002000180240054804495B
:10151000016001F5806141604FF480618160704736
:1015200044140020C40200207CB5294DEC68641CE2
:101530002046EC60FFF713F89FED261B53EC112BB0
:10154000FEF71BFF9FED251B53EC112BFEF787FFCA
:10155000FFF774F868626869A969201A0026884252
:1015600000D32E6240F6B83084422FD341F2883047
:1015700084422BD9E00701D104F08EFC194C297B61
:101580002078C94350EAC17001D1FFF76DFF207880
:10159000297B50EA817001D1FFF7C4FBE868642120
:1015A000B0FBF1F201FB120000280FD101202861ED
:1015B0000D48009601960078801E10FB01F002B2E3
:1015C00000234FF404710948FFF757FB7CBD00006E
:1015D000200200209A9999999999B93F000000003A
:1015E000000059409C010020F3020020A41E0020AE
:1015F000014800F0F5BE0000E41D0020014800F0A5
:10160000EFBE0000841D0020014800F0E9BE00008C
:10161000441E0020014800F0E3BE0000FC1F002033
:10162000014800F0DDBE00005C20002001681823A6
:10163000CAB2103AB2FBF3F2054B6FF30901032A69
:101640009B5CC36500D9091D816508467047000091
:10165000FEA0000810B5014600208B698A6A4FF091
:10166000C07453B1B3F5005F15D072B1012A0CD02C
:10167000022A0AD0032A09D104E01AB1012A06D0AD
:10168000022A03D1C96AC90100D5012010BDC96A67
:10169000A142FAD010BD002AF7D0012AF2D0022AC6
:1016A000F3D0032AF3D010BD10B5046863608368DB
:1016B000402B036803D099600068C26010BD9A6037
:1016C0000068C16010BD30B50468256825F4802528
:1016D0002560046863608368402B036803D09960C9
:1016E0000068C26030BD9A600068C16030BD70475C
:1016F0000A88C2F30A02A2F5806202804A788B78D7
:10170000D20842EA4312C2F30A02A2F58062428082
:101710008A78CB78920942EA83020B7942EA8322E3
:10172000C2F30A02A2F5806282800A794B795208DC
:1017300042EAC312C2F30A02A2F58062C2804A7969
:10174000920902724A79C2F301124272CA88428136
:101750000A8982814A89C2810A7B02824A7B42824B
:10176000C989C1827047FEE70249CA68C1E90520FC
:1017700070470000200200201FB56946009001203C
:1017800001900720029000200390084800F07AF8AA
:10179000064800F0C7F90A21044800F071F903482F
:1017A00000F01AF904B080B210BD0000AC21002096
:1017B0002DE9F04100250E4607462C4608E0384644
:1017C000FFF7DAFF0544052008F00CF9641CE4B2C9
:1017D000B442F4D3B5FBF6F080B2BDE8F08100006E
:1017E00010B558B1084C491E0BD310F8013B5340BB
:1017F000DBB234F8133083EA1222F4E74FF6FF70BD
:1018000010BD104610BD00002CA5000810B5054CF9
:1018100003E010F8013B5340E25C491EF9D2104648
:1018200010BD00002CA4000830B500239FED130A62
:101830001A46134C08E034F91250854202D134F9AB
:10184000123003E0521CD2B28A42F4DB0C4C00226C
:10185000A03408E034F91250854202D134F9123034
:1018600003E0521CD2B28A42F4DBC01A00B2002854
:1018700003D000EE100AB8EEC00A30BD0000000030
:101880003800002078B50024009490F83C20012A0C
:1018900019D0012280F83C200A6807250368092A2C
:1018A00013D9DE680A3A02EB42029540AE43DE608D
:1018B0000A788B680A3A02EB420293400268D568C4
:1018C0002B43D36010E0022078BD1E6902EB420278
:1018D0009540AE431E610A788B6802EB420293404A
:1018E000026815692B4313614A681F25072A13D222
:1018F00003685E6B521E02EB82029540AE435E634C
:101900000A8893B20A79521E02EB8202934002685F
:10191000556B2B43536327E003680D2A12D21E6BCD
:10192000D21F02EB82029540AE431E630A8893B237
:101930000A79D21F02EB820293400268156B2B4397
:10194000136311E0DE6A0D3A02EB82029540AE436A
:10195000DE620A8893B20A790D3A02EB8202934062
:101960000268D56A2B43D362174B02689A4208D1AA
:101970000A68122A05D1D3F8042342F48002C3F87E
:10198000042302689A421BD1104D0A68AA4201D072
:10199000112A15D1D3F8042342F40002C3F804231A
:1019A0000968A9420CD10A490A4A0968B1FBF2F157
:1019B00001EB8101490000E0491E00910029FBD1A3
:1019C00080F83C40002078BD00200140120000104B
:1019D0008003002040420F000068C06C704770B563
:1019E00004004FF0000603D0206C002510B107E082
:1019F000012070BD656484F83C50204600F01AF860
:101A0000206CC00610D4206C20F4885040F00200F6
:101A100020642046FEF7EAFF6564206C20F0020097
:101A200040F00100206400E0012684F83C5030467C
:101A300070BD0000104800B5026887B0002142F474
:101A400080720260006800F4807005900A481438C3
:101A5000026842F002020260006800F00200059095
:101A6000012000900320CDE901016946034800F000
:101A70005DFE07B000BD0000443802400004024093
:101A80002DE9F041044600680D4681684FF00007DB
:101A900049050BD58068C00508D5206C40F02000B2
:101AA000206484F83C700120BDE8F08100F036FF2E
:101AB00006460FE0681C0DD025B100F02FFF801BFB
:101AC000A84207D9206C40F00400206484F83C70E0
:101AD0000320E9E7206800688007EBD521686FF0F4
:101AE00012000860206C40F4007020642068816857
:101AF00011F0405F13D1A16989B9C16A11F4700F67
:101B000002D0806840050AD4206C20F480702064E4
:101B1000206CC00403D4206C40F00100206400203D
:101B2000C2E7000018B50022009290F83C1001298D
:101B300007D0012180F83C1001688B68DB0702D0D8
:101B400011E0022018BD8B6843F001038B6020492F
:101B5000204B0968B1FBF3F101EB410100E0491EA4
:101B600000910029FBD101688B68DB072DD0036C45
:101B700040F20164A34343F4807303644B685B0544
:101B800005D5036C23F4005343F480530364036CC2
:101B9000DB0404D5436C23F00603436400E0426495
:101BA00080F83C206FF022020A600B49D1F8042330
:101BB0000068D20601D0884207D1816811F0405FE9
:101BC00003D1816841F080418160002018BD000090
:101BD0008003002040420F0000200140F0B50A7D44
:101BE00001209040344A136843F0010313601368E6
:101BF00023F47C53136013684C6A43EA0423136094
:101C00002D4D1C352B6883432B602B4C2B4BCE6901
:101C10000C34A6B92668864326608F894E6867F320
:101C20001F464F6903EBC707C7F840660F890E6868
:101C300067F31F464F6903EBC707C7F84466CE69D1
:101C4000012E14D12668064326600E884C6866F380
:101C50001F444E6903EBC606C6F840460E89CC68A1
:101C600066F31F444E6903EBC603C3F84446124BA8
:101C70008C691B1D002C1C6806D004431C600E4B95
:101C80000C69143314B104E08443F7E71C688443FF
:101C90001C600C69012C02D11C6804431C60096A99
:101CA000012902D1296801432960106820F0010050
:101CB00010600020F0BD00000066004000600040A1
:101CC0007047000010B5044600684169C943C90760
:101CD00014D182685849914368D000218368574ADB
:101CE0009A4365D0002283685548984362D000200B
:101CF0001143014302D02046FEF7E4FF2068C1688B
:101D0000406911F0030FC0F3400004D018B1002166
:101D10002046FEF71FFF20680169406911F0030F9C
:101D2000C0F3001004D018B101212046FEF712FFC5
:101D3000206881694269C1F300014369C2F300224E
:101D4000C3F3C03329B122B11BB1E16B41F00101F2
:101D5000E1638169C1F3400241694369C1F34021F4
:101D6000C3F3C0332AB121B11BB1E16B41F00201D1
:101D7000E16381694269C1F38001C2F38023426952
:101D8000C2F3C03229B123B11AB1E16B41F00401B1
:101D9000E163816911F0700F0ED000214269C2F336
:101DA000C0234269C2F3C03241B127E0012195E767
:101DB000012298E701209BE70121EFE7F3B1EAB1A7
:101DC000816901F07001402929D006DC102909D071
:101DD00020290BD030290DD11DE0502923D06029B6
:101DE00008D124E0E16B41F0080102E0E16B41F031
:101DF0001001E163816921F070018161E06B0028CD
:101E000008D0216804204860012084F8380020466A
:101E1000FFF756FF10BDE16B41F02001E9E7E16BF0
:101E200041F04001E5E7E16B41F08001E1E7E16B62
:101E300041F48071DDE700000300000400030008A6
:101E4000000003102DE9F041040004D094F838009C
:101E5000002518B107E00120BDE8F08184F8395071
:101E6000204600F091F8022084F8380020680168CC
:101E700021F0020101602068016841F00101016068
:101E800000F04CFD0746032604E000F047FDC01BB0
:101E90000A2862D820684068C007F6D020684168E8
:101EA000C90767D0A169012901683FD021F08001ED
:101EB0000160E0690128206801683AD021F0400102
:101EC0000160206A01282068016835D021F02001D6
:101ED0000160606A01282068016830D021F010019B
:101EE0000160A06A0128206801682BD021F0080158
:101EF0000160E06A01282068016826D021F0040111
:101F00000160D4E902010843D4E9041211430843F3
:101F10006168491E08432168C8612068016821F092
:101F20000101016000F0FAFC07461BE041F080016E
:101F3000BEE741F04001C3E741F02001C8E741F0AE
:101F40001001CDE741F00801D2E741F00401D7E7E5
:101F500000F0E4FCC01B0A2804D904F8386F032001
:101F6000657079E720684068C007F1D12068406853
:101F7000C00703D0042084F838006CE7E563012033
:101F800084F83800002067E770B50068274E002508
:101F9000274903220223092486B0B0421ED10868D3
:101FA00040F00070086008688DE82C0000F00070B8
:101FB000CDE90440694603921E4800F0B7FB0022B9
:101FC0000121132000F0D8FC132000F0C9FC0122ED
:101FD0000221142000F0D0FC142022E0164EB04262
:101FE00021D1086840F0806008600868694600F008
:101FF000806005904FF440508DE82900CDE903241E
:102000000E4800F093FB002201213F2000F0B4FCB9
:102010003F2000F0A5FC00220221402000F0ACFC93
:10202000402000F09DFC06B070BD00000064004040
:1020300040380240000C02400068004000040240AA
:1020400070B50446594884427ED1606B40F2052247
:102050000068A0F20521904222D00ADCA0F50070B1
:1020600001380ED001280FD0022811D003281BD12F
:1020700012E04F4D012918D002292FD00C297AD116
:1020800051E04C494C488AE04B484A49403086E090
:1020900049484849803082E047484649C0307EE0A0
:1020A0004449464803F029FD65E044484149403031
:1020B00003F023FD4148B0F9000000EE100A3F484C
:1020C000B8EEC00A403085ED050AB0F9000000EE18
:1020D000100AB8EEC00A85ED060A4CE037483549CB
:1020E000C03003F019FD35483249803003F056FF07
:1020F00032488030B0F9000000EE100A2F48B8EEE8
:10210000C00AC03085ED070A90ED050AB8EEC00A96
:1021100085ED080AB0F9000000EE100AB8EEC00A1A
:1021200085ED090A27E02349254807F04BFF244E97
:102130002449254B96ED080A85ED010A96ED0A0A19
:1021400085ED020A706A00E01BE0E860884201DC6D
:10215000012200E000221021184600F0D9FB95ED85
:10216000010AD5ED020A20EE200A85ED000A96ED5F
:102170000B0A85ED040A2068416941F002014161C2
:1021800070BD12488442FBD1606B0068A0F50070FE
:10219000013807D00128EED108480D49403804F035
:1021A000E3F8E8E705480A498038F8E7A41E00206C
:1021B000D8010020401F0020F404002074060020F5
:1021C000740700200000884100080240E41E00203F
:1021D000801F00202DE9F05F0E46016804468868E4
:1021E000400105D48868000102D48868C00068D521
:1021F00094F8390001280FD04FF0010884F8398095
:1022000094F8380022280AD0122084F83800886810
:10221000400106D500250AE00220BDE8F09F3220EB
:10222000F3E78868000101D5012500E002254FF49D
:10223000C07000EB05100A5802F001020A50216B31
:102240008A68EAB323681F581743CA68496842EA94
:10225000C1010F431F50216B0A7C02F00F020A617B
:102260004FF4C271226801EB0511535823F00F039C
:10227000535022685358276B3F693B435350216B9F
:102280004FF4C47303EB05130A7DD1F8151042EA2D
:1022900001212268D150216B4FF4C67303EB051363
:1022A0000A7ED1F8191042EA01212268D150216832
:1022B0000A5842F001020A5000F030FB074601E0E4
:1022C00007E03BE04FF00009DFF87CA0DFF87CB0CE
:1022D00016E022681358CF6809883B4343EA41510E
:1022E0001150B8E7701C0BD026B100F017FBC01BD3
:1022F000B04205D9032084F8380084F839908CE77F
:1023000095B12068012D816813D0114888430028B9
:10231000E8D194F8380032280ED0404684F83800CE
:1023200084F83990002078E7206881682AEA010063
:10233000EDE72BEA0100EAE72220EFE7042084F82A
:102340003800012069E700000300000400030008D2
:102350000000031070472DE9F04104468068002515
:10236000069E80280ED094F8340001280FD001205A
:1023700084F8340094F8350001280AD00225284654
:10238000BDE8F0814FF4807060650125F7E7022019
:10239000F6E7022084F835002068076847F48027B4
:1023A00007602068036133462046FFF77DF9206807
:1023B000016841F001010160E1E790F83510022960
:1023C00003D08021416501207047052180F8351038
:1023D0000068016821F001010160002070470000E1
:1023E0002DE9F84304464FF00008CDF8008064481A
:1023F0004FF41651A56D0068B0FBF1F72E6894F804
:102400005C00082202FA00F1314210D02068016815
:1024100049070CD5016821F00401016094F85C00C3
:1024200002FA00F1A960606D40F00100606594F867
:102430005C1054488840304208D021684969090638
:1024400004D5A860606D40F0020060654D4894F8C6
:102450005C10C01C8840304208D021680968890798
:1024600004D5A860606D40F00400606594F85C10CD
:1024700010208840304218D021680968090714D517
:10248000A86020680168490304D50068000308D5E6
:10249000A16C07E00168C90503D4016821F00801B7
:1024A0000160216C09B12046884794F85C10202017
:1024B000884030424FF0010631D021680968C906D2
:1024C0002DD5A86094F8350005282068016806D04D
:1024D000490347D5006800031DD4616C1CE021F05E
:1024E000160101602068416921F080014161206C82
:1024F00008B9A06C20B12068016821F008010160D2
:1025000094F85C103F208840A86084F8348084F8F8
:102510003560216D1FE0E16B09B120468847606D91
:1025200000282BD0606DC00714D0052084F835003A
:102530002068016821F0010101600098401C0090B2
:10254000B84203D820680068C007F6D184F8348008
:1025500084F83560E16C002910D001B02046BDE858
:10256000F04308470168C905D5D4016821F010017E
:10257000016084F8348084F83560CCE7BDE8F883E6
:1025800080030020010080002DE9F041044600F0A6
:10259000C5F905465CB1002684F83460022084F851
:1025A00035002068016821F0010101600DE0012083
:1025B000BDE8F08100F0B2F9401B052805D92020C4
:1025C0006065032084F83500F2E720680068C007E2
:1025D000F0D121680A681F480240D4E9010318437A
:1025E000D4E903352B43184363691843A36918439F
:1025F000E3691843236A18431043626A042A03D12B
:10260000D4E90B231A431043086020684069656AC7
:1026100020F0070128460D43012704280AD1A06AAB
:1026200005432046FFF716F820B14020606584F886
:102630003570BCE7206845612046FEF7F7FF94F847
:102640005C203F2191408160666584F835700020F0
:10265000AEE700003F8010F070B5044690F83400FB
:10266000002501280CD0012084F8340094F835604E
:102670000020012E06D084F834000225284670BDC3
:10268000022070BD022684F8356060652046FFF7A1
:102690001AF82068016841F001010160EEE72DE9B8
:1026A000F0410446866D90F83400002501280DD0D5
:1026B000012084F8340094F835700020012F07D0F1
:1026C00084F8340002252846BDE8F0810220FBE7AB
:1026D000022784F8357060652046FEF7F4FF94F811
:1026E0005C103F208840B0602068016841F016010E
:1026F00001602068416941F080014161206C20B196
:102700002068016841F0080101602068016841F01B
:1027100001010160D7E731B500F000F9044600F08F
:10272000FDF80099001B8842F9D338BD2DE9F84F18
:10273000DFF8A091002209F1040A0AF1040B4FF01E
:102740000F080BF1040E01260B6896403340B3428C
:1027500071D14C68022C01D0122C11D1D40800EB9D
:1027600084073D6A5407E40E08FA04FC25EA0C05C8
:10277000D1F810C00CFA04FC4CEA050CC7F820C0D4
:1027800007685400032591F804C0A5400CF0030C21
:10279000AF430CFA04FC4CEA070CC0F800C04F68C9
:1027A000012F05D0022F03D0112F01D0122F11D1EC
:1027B0008768D1F80CC0AF430CFA04FC4CEA070C54
:1027C000C0F808C04768B7430E79C6F300169640B4
:1027D0003E434660C668AE438D68A5403543C5603C
:1027E0004C68E4006FD53C4C256845F48045256075
:1027F000246822F0030504F480440094374C2E1919
:10280000D6F808789407250F08FA05F4A743344C46
:10281000A04201D100242EE0324CA04201D101247B
:1028200029E0314CA04201D1022424E02F4CA042E7
:1028300002D103241FE046E02D4CA04201D1042424
:1028400019E02C4CA04201D1052414E02A4CA042EE
:1028500001D106240FE0294CA04201D107240AE04F
:10286000274CA04201D1082405E0264CA04201D10A
:10287000092400E00A24AC403C43C6F80848D9F8D3
:1028800000404D464E689C43F60300D51C432C6027
:10289000DAF8004055464E689C43B60300D51C4309
:1028A0002C60DBF800405D464E689C43F60200D584
:1028B0001C432C60DEF8004075464E689C43B6020F
:1028C00000D51C432C60521C102AFFF43CAFBDE81D
:1028D000F88F0000003C01404438024000300140C5
:1028E000000002400004024000080240000C0240C8
:1028F000001002400014024000180240001C024078
:10290000002002400024024042694A404261704770
:102910000AB1816170470904FBE7000001480068C3
:10292000704700000000002002480168491C016057
:10293000704700000000002010B5044607484FF41F
:102940007A710068B0FBF1F000F0D4FC002221465F
:10295000501E00F011F8002010BD00008003002080
:1029600000F01F02012191404009800000F1E020A9
:10297000C0F8001170470000F0B40E4B1B68C3F3A1
:102980000223C3F10704042C00D904241D1D072DC4
:1029900001D2002300E0DB1E012606FA04F56D1EBD
:1029A0000D409D409E40761E164045EA0601F0BC53
:1029B00002F01CBA0CED00E02DE9F8431D48016857
:1029C00041F0805101600068012700F080500090C4
:1029D000380490FAA0F0DFF86080B0FA80F048F890
:1029E0002070FFF79BFF04464FF47A75134E04E006
:1029F000FFF794FF001BA84213D87068C003F7D5F7
:102A00004FF4003090FAA0F0B0FA80F048F820704F
:102A1000FFF784FF044607E0FFF780FF001BA84292
:102A200002D90320BDE8F88370688003F4D5002044
:102A3000F8E700004038024000000E4200700040FD
:102A40002DE9F047DFF85C9104460E46D9F8000006
:102A500000F00F01F0B28046B14207D289F80000C1
:102A6000D9F8000000F00F00B04271D120784E4F2D
:102A7000800705D53868A16820F0F0000843386069
:102A80002078C00756D048496068083901281AD014
:102A900002281BD0032819D009688907002957DAB2
:102AA000396821F0030101433960FFF737FF05461C
:102AB000606841F28831012811D002281CD0032817
:102AC0008A4625D032E009688903E7E70968890169
:102AD000E4E7FFF723FF411B514501D923E08A4674
:102AE0003868C0F381000128F3D123E0FFF716FF17
:102AF000411B514501D916E08A463868C0F3810070
:102B00000228F3D116E0FFF709FF411B51450AD80F
:102B10003868C0F381000328F5D10BE0FFF7FEFE13
:102B2000411B514502D90320BDE8F087386810F0F9
:102B30000C0FF3D1D9F80010484601F00F01B14253
:102B400008D980F80080006800F00F00B04201D082
:102B50000120E9E72078400705D53868E16820F4CE
:102B6000E050084338602078000706D538682169AE
:102B700020F4604040EAC100386000F051F8396844
:102B8000F02292FAA2F201F0F001B2FA82F2D14000
:102B9000064A515CC840064908600020FFF7CCFE99
:102BA0000020C1E7003C02400838024006A10008AE
:102BB0008003002001480068704700008003002067
:102BC00008480949006809684FF4E05292FAA2F2F5
:102BD00001F4E051B2FA82F2D140044A515CC8409B
:102BE00070470000800300200838024006A100085A
:102BF00008480949006809684FF4604292FAA2F255
:102C000001F46041B2FA82F2D140044A515CC840FA
:102C100070470000800300200838024006A1000829
:102C200030B51948006810F00C01184812D0184C43
:102C300004290ED008290DD1134A121F11681368F8
:102C400001F03F015D0247F6C07304D5B4FBF1F01B
:102C500003E0204630BDB0FBF1F01168194093FA53
:102C6000A3F3B3FA83F3D940484311684FF44032D9
:102C700092FAA2F201F44031B2FA82F2D140491C38
:102C80004900B0FBF1F030BD083802400024F400E8
:102C9000001BB7002DE9F84F04460078DFF8B89222
:102CA000AE4DC00735D0D9F800104846C1F38101B8
:102CB000012908D00068C0F3810002280AD1281D2C
:102CC0000068400206D52868800322D56068002885
:102CD0007AD01EE0A1492079891C0870606860B133
:102CE000FFF71CFE064604E0FFF718FE801B642871
:102CF0006BD828688003F7D50BE0FFF70FFE064678
:102D000004E0FFF70BFE801B6428F1D828688003DD
:102D1000F7D42078924F80074FF0010B4FF0000856
:102D200042D5D9F80010484611F00C0F4FF0F80AC0
:102D300009D00068C0F3810002280BD18648001F2B
:102D40000068400206D42868800713D5E06801288F
:102D50003AD10FE0E068C8B1C7F800B0FFF7DEFD78
:102D6000064604E0FFF7DAFD801B0228C0D8286879
:102D70008007F7D528689AFAAAF22169B2FA82F296
:102D800020F0F8009140084328600DE0C7F800806B
:102D9000FFF7C4FD064604E0FFF7C0FD801B0228D4
:102DA00013D828688007F7D42078000727D5DFF8E4
:102DB000A8A16C4861690AF16C0A89B1C0F800B039
:102DC000FFF7ACFD064606E0C3E076E0FFF7A6FDA0
:102DD000801B022871D8DAF800008007F6D50EE0D3
:102DE000C0F80080FFF79AFD064604E0FFF796FD65
:102DF000801B022861D8DAF800008007F6D420781A
:102E0000400746D554483830016841F08051016090
:102E10000068DFF854A100F080500090DAF800104C
:102E200041F48071CAF80010FFF778FD064604E00F
:102E3000FFF774FD801B02283FD8DAF80000C005B8
:102E4000F6D5DFF814A1207A0AF1680A8AF80000A2
:102E5000A06878B1FFF762FD064606E0FFF75EFD69
:102E6000811B41F2883081426BD8DAF8000080077C
:102E7000F4D50EE0FFF752FD064606E0FFF74EFDE3
:102E8000811B41F2883081425BD8DAF8000080076C
:102E9000F4D4A069F0B3D9F80010C1F3810102297C
:102EA00057D00228C7F8608003D0FFF737FD0446EB
:102EB0004AE0FFF733FD064605E042E0FFF72EFD4E
:102EC000801B02283DD828688001F7D4D4E9070187
:102ED000084347F6C07292FAA2F2616AB2FA82F22D
:102EE0009140A26A4FF0FF3303EB52024FF440339C
:102EF00093FAA3F3B3FA83F39A40114308434FF0D4
:102F0000706292FAA2F2E16AB2FA82F29140084348
:102F1000114900E01BE0091F0860C7F860B0FFF727
:102F2000FDFC044604E0FFF7F9FC001B022808D86A
:102F300028688001F7D50AE0FFF7F0FC001B0228A3
:102F400002D90320BDE8F88F28688001F4D400205E
:102F5000F8E70120F6E70000083802400038024098
:102F600000004742800E474200700040704700005A
:102F700038B504460068426881684B0605D4CB0723
:102F800003D0530601D5216C04E08B0707D5130647
:102F900005D5616C01B02046BDE83040084711F40A
:102FA000B07F48D0930646D54B060AD594F85130E9
:102FB000032B3DD0636D43F004036365C3688368EE
:102FC00000938B0609D5636D43F001036365836845
:102FD0000093036823F040030360C80506D5606DC5
:102FE00040F008006065206880680090606D0028EF
:102FF00021D02068416821F0E0014160012084F87F
:103000005100900718D02068416821F00301416009
:103010000B4DE06C18B10565E06CFFF7CEF9A06CC4
:10302000002808D00565A06CBDE83840FFF7C5B999
:10303000C1688068009038BD2046FFF797FF38BD13
:10304000F55E000870B5040005D00025A56294F86F
:10305000510010B106E0012070BD84F850502046A8
:1030600000F030F8022084F851002068016821F057
:1030700040010160D4E901010843D4E9031211437E
:10308000084361690843218B01F400710843E16939
:103090000843216A0843A16A084321680860A069BF
:1030A000042101EA1040616A0843216848602068F1
:1030B000C16921F40061C1616565012084F8510096
:1030C000002070BD00B500680E4987B0884217D156
:1030D0000D480021026842F480120260006800F48A
:1030E000801005904FF4607000900220CDE901013E
:1030F000032003900520049069460448FFF716FB5F
:1031000007B000BD005001404438024000140240A6
:103110002DE9F84F044690F850000127DDF828808B
:103120009B4616460D464FF0000901280ED001209F
:1031300084F85000FFF7F2FB824694F85100616872
:1031400001280CD0B1F5827F07D102E00220BDE852
:10315000F88FA16809B9042801D00220A2E045B186
:103160003EB1BBF1000F04D094F85100012802D009
:1031700004E0012096E0052084F8510000206065FD
:10318000A663A4F83EB0A4F83CB02563A4F836B01A
:10319000A4F834B02064606420680168490603D450
:1031A000016841F040010160E068B0F5006F6068BF
:1031B00004D0D0B3E08E012838D063E010B1E08EA7
:1031C00001282BD1216835F8020BC860E08E401E23
:1031D000E08623E067B1E08E50B1206881688907FE
:1031E00006D535F8021BC160E08E401EE086002740
:1031F000E08F50B120688168C90706D0C06826F802
:10320000020BE08F401EE0870127B8F1FF3F05D099
:10321000FFF784FBA0EB0A01414542D2E08E002873
:10322000D8D1E08F0028D5D132E0FFE7216815F82A
:10323000010B0873E08E401EE08623E067B1E08E4C
:1032400050B120688168890706D515F8011B017304
:10325000E08E401EE0860027E08F50B12068816834
:10326000C90706D0C06806F8010BE08F401EE08752
:103270000127B8F1FF3F05D0FFF750FBA0EB0A0193
:1032800041450ED2E08E0028D8D1E08F0028D5D15C
:103290004346012202212046CDF800A002F032FE72
:1032A00010B10320814610E052464146204602F00C
:1032B00011FE20B120204FF00109606505E0A068F3
:1032C00018B92068C16880680090012084F8510016
:1032D000002084F85000484639E74FF0E0210428E8
:1032E000086903D020F004000861704740F0040032
:1032F000FAE7704710B5401EB0F1807F01D301207E
:1033000010BD4FF0E02460610F21601701F06EFDE9
:103310000020A06107202061002010BD10B5FFF73C
:10332000E8FF10BD7047704730B590F83820012A8B
:1033300019D0012400F8384F02224270D1E900234D
:103340001A43D1E902352B431A430B691A434B69DF
:1033500089691A430A4350F8381C4A6444700021B2
:103360000170084630BD022030BD30B590F83820DD
:10337000012A20D0012380F83830022280F8392039
:103380000268546824F070045460026854680D6840
:103390002C4354600268946824F0800494600268AE
:1033A000946849680C43946080F83930002180F8B3
:1033B0003810084630BD022030BD10B5040003D0DF
:1033C00094F8390010B107E0012010BD002084F806
:1033D0003800204600F00CF8022084F83900211D46
:1033E000206803F057F8012084F83900002010BD50
:1033F00008B502683549B2F1804F07D10A6842F03A
:1034000001020A600A6802F0010200920068304A74
:1034100090420ED1086840F002000860086800225F
:1034200000F00200009011461D20FFF7A5FA1D20B4
:103430003CE0284A90420ED1086840F01000086035
:103440000868012200F01000009011463620FFF7B6
:1034500093FA36202AE0204A90422BD11B48001DC7
:10346000016841F0020101600068002200F00200E2
:10347000009011462B20FFF77FFA2B20FFF770FA00
:10348000002211462C20FFF777FA2C20FFF768FA6C
:10349000002211462D20FFF76FFA2D20FFF760FA6A
:1034A000002211462E20FFF767FA2E20BDE80840C3
:1034B000FFF756BA094A904207D1086840F0400029
:1034C0000860086800F04000009008BD40380240E5
:1034D00000040040001000400004014000180040BB
:1034E0000168CA6842F00102CA600068016841F0E0
:1034F000010101600020704770B5044690F8380063
:10350000012817D0012584F83850022084F83900AA
:103510002068826822F0770222F47F428260086885
:10352000502836D00DDC202858D005DC80B3102878
:1035300040D150E0022070BD302852D0402839D10F
:103540003EE060282DD070280BD0B0F5805F03D00E
:10355000B0F5005F2ED110E02068816821F00701EE
:1035600009E0CB68D1E90121206802F0FEFF206864
:10357000816841F0770181601CE0CB68D1E90121CD
:10358000206802F0F2FF2068816841F48041F2E790
:103590001EE0CA684968206803F0B8F85021206826
:1035A00006E0CA684968206803F0C1F86021206815
:1035B00002F0E5FF84F83950002084F8380070BD2F
:1035C000CA684968206803F0A1F840212068EFE745
:1035D00000212068ECE710212068E9E7202120681D
:1035E000E6E730212068E3E7704770B504460068DD
:1035F00001694FF00005C943890715D4C168C94363
:10360000890711D4E91E01610120207620688069B4
:103610008007204602D0FFF7E7FF04E000F0E0F863
:10362000204600F062F9257620680169C943490700
:1036300017D4C168C943490713D46FF0040101616D
:10364000022020762068806910F4407F204602D056
:10365000FFF7CAFF04E000F0C3F8204600F045F988
:10366000257620680169C943090716D4C168C94392
:10367000090712D46FF00801016104202076206848
:10368000C0698007204602D0FFF7AEFF04E000F0DB
:10369000A7F8204600F029F9257620680169C9437A
:1036A000C90617D4C168C943C90613D46FF0100105
:1036B0000161082020762068C06910F4407F204610
:1036C00002D0FFF791FF04E000F08AF8204600F0F6
:1036D0000CF9257620680169C943C90708D1C1687A
:1036E000C943C90704D1891E0161204600F01AF9B7
:1036F00020680169C943090609D4C168C94309069C
:1037000005D46FF0800101612046FFF70BFE2068B1
:103710000169C943490609D4C168C943490605D4AA
:103720006FF040010161204600F056F92068016900
:10373000C94389060BD4C168C943890607D46FF011
:10374000200101612046BDE87040FFF7ECBD70BD6F
:103750002DE9F041006800240326022586B0B0F16F
:10376000804F0FD01949884222D1E4200090CDE942
:103770000154CDE9034669461548FEF7D7FF06B068
:10378000BDE8F08148F20C0000900127CDE90174FA
:10379000DFF84080CDE9034769464046FEF7C6FFA3
:1037A0000096CDE90154CDE9034769464046E4E778
:1037B00009498842E3D14FF410700090CDE90154DB
:1037C0000920CDE9034069460448D6E700040140DA
:1037D000002002400000024000180040001C02408F
:1037E000704770B5044690F838000D4601280DD09A
:1037F000012684F83860022084F8390042B1042A96
:1038000018D0082A2AD00C2A4DD139E0022070BDE8
:10381000206802F0BDFE2068816941F008018161E5
:103820002068816921F004018161206881692A6929
:10383000114311E0206802F0D7FE2068816941F44D
:10384000006181612068816921F480618161206863
:1038500081692A6941EA0221816124E0206802F03D
:10386000F5FE2068C16941F00801C1612068C169A5
:1038700021F00401C1612068C1692A69114311E086
:10388000206802F013FF2068C16941F40061C16142
:103890002068C16921F48061C1612068C1692A6919
:1038A00041EA0221C16184F83960002084F83800BF
:1038B00070BD10B5040003D094F8390010B107E0D2
:1038C000012010BD002084F83800204600F00CF8DC
:1038D000022084F83900211D206802F0DBFD012060
:1038E00084F83900002010BD7047704710B50446B9
:1038F0000068012202F02EFE08482168814202D0B1
:103900000748814203D1486C40F400404864206875
:10391000016841F001010160002010BD000001407C
:103920000004014010B522492DED028B88423CD1A4
:1039300000F0CAFA1F49204C0878012801D0E0B1F4
:103940002DE04868FCF737FE41EC180B1B48006877
:10395000FCF731FE9FED1A1B53EC112BFCF77FFD9A
:1039600053EC182BFCF709FD94ED001B53EC112BC5
:10397000FCF75CFCC4E9000111E09FED130B144857
:1039800053EC102B90ED000B51EC100BFCF767FD86
:10399000C4E90001002204210E48FEF7B9FFBDEC86
:1039A000028BBDE81040FDF7BFBDBDEC028B10BD22
:1039B00034210020D0020020E40400202800002050
:1039C0000000006066664040CDCCCCCCCCCCFCBFC7
:1039D00080020020001802407047704770B50368ED
:1039E00004461868D9685A6910F00F0F4ED040F29B
:1039F00001152A425DD0C30705D0CB0503D5E36B83
:103A000043F00103E363430705D5D30703D0E36B1A
:103A100043F00203E363830705D5D30703D0E36BC9
:103A200043F00403E363030705D5D20703D0E26B39
:103A300042F00802E263E26B002A33D0800604D52C
:103A4000880602D5204602F033FF20684069E16B0A
:103A5000C0F38010090700D428B3204602F009FF04
:103A60002068416949061AD5416921F04001416148
:103A7000606BA0B11B490165606BFEF79EFC0028DE
:103A800010D0606B016DBDE870400847820610D50C
:103A90008A060ED52046BDE8704002F009BF2046D8
:103AA000FFF79BFF70BD2046FFF797FF0020E06304
:103AB00070BD020606D50A0604D52046BDE8704052
:103AC00003F092B84006F3D54806F1D5D9682046F0
:103AD00021F04001D960202184F8391000F0F0F97C
:103AE00070BD0000E167000870B5040004D094F8D0
:103AF0003900002510B106E0012070BD84F838506F
:103B0000204600F023F8242084F839002068C1689A
:103B100021F40051C160204602F010FF20680169C5
:103B200021F4904101612068416921F02A0141613D
:103B30002068C16841F40051C160E563202084F829
:103B4000390084F83A00002070BD00002DE9F047EC
:103B500004460068DFF8C0C10026704F0221012230
:103B60000323072586B04FF4806A60452BD138685F
:103B700040F010003860386800F010000590C02058
:103B80008DE82F0069466648FEF7D0FD664D654812
:103B900028604FF00060C5E90106C5E9036A6E615F
:103BA000AE61EE612E6228466E62FEF7EDFC08B152
:103BB000FDF7D9FD6563002211462520AC63FEF7B1
:103BC000DBFE252021E0DFF86481DFF850C1DFF85B
:103BD0006091ACF1040C40451CD1DCF8000040F4CD
:103BE0000030CCF80000DCF8000000F40030059054
:103BF00060208DE82F0069464846FEF797FD0022B9
:103C000011462620FEF7B8FE2620FEF7A9FE06B0D4
:103C1000BDE8F087DFF81C81404519D1DCF80000D1
:103C200040F48020CCF80000DCF8000000F4802094
:103C300005904FF440708DE82F0069464846FEF726
:103C400075FD002211462720FEF796FE2720DCE7AF
:103C5000DFF8E4800825404516D1386840F02000A0
:103C60003860386800F0200005904FF484408DE8FB
:103C70002F0069463148FEF759FD002211464720C2
:103C8000FEF77AFE4720C0E72D4FB842BFD1DCF8DF
:103C9000000040F08040CCF80000DCF8000000F0AC
:103CA000804005904FF4C0708DE82F00694625488C
:103CB000FEF73CFD1C4D2448C03D4FF020692860B4
:103CC000C5E90196C5E9036A80156E61C5E906601C
:103CD0004FF48038C5E9088657462846FEF754FC5D
:103CE00065631948AC6360353038E5E80209402067
:103CF000C1C50D4845F814696038AE61C5E907686B
:103D00006E62FEF741FC2563002205215220AC6360
:103D1000FEF732FE522078E700100140443802409E
:103D20000004024040640240441E00200044004061
:103D3000000C0240004800400014014000180240FE
:103D400000780040001002405860024090F83A307D
:103D5000202B22D1F9B1F2B190F83830012B1CD0D0
:103D600081628285C2850021C163222280F83A20C7
:103D700080F838100168CA6842F48072CA6001682D
:103D80004A6942F001024A610068C16841F02001BD
:103D9000C16000207047012070470220704700007A
:103DA00070B5224A04460121C8201160FDF7DCFCF1
:103DB0001F492068884236D11E4B1F4A0020141824
:103DC000195C1154401CC0B221720828F7D300249A
:103DD000105D232828D0641CE4B2102CF8D35019AD
:103DE0004178C278303901EBC10303EB011102EBDA
:103DF00081028178114B01EB810103EB41011144F8
:103E00000C4A121F1180017984793039407901EB15
:103E1000C10505EB011100EB800004EB810103EB10
:103E200040000844508070BD2546D8E7400200207D
:103E300000140140BC02002098130020F0FDFFFF99
:103E4000F7B5044690F83900202831D1019969B3BB
:103E500062B394F8380001282AD0012084F8380091
:103E60002162A284E2840025E563212084F83900E0
:103E7000236B1048D863236B0F481864236B0F48DB
:103E8000D864206B134605652668206B321DFEF74B
:103E900006FC21686FF04000086084F83850206804
:103EA000416941F0800141610020FEBD0120FEBD5D
:103EB0000220FEBD3B68000869680008F167000841
:103EC00070477047FEE70000F0B5724C87B0E068BD
:103ED00040B971480078012802D1A068401EA06056
:103EE0000120E0600E2202A93B2000F07BFBBDF820
:103EF00008006A4D40BA03B22B80BDF80A0005F1F4
:103F0000340640BA00B26880BDF80C1049BA09B254
:103F1000A980BDF80E2052BAEA809DF81120378999
:103F2000D21B9DF8107042EA07222A819DF8137077
:103F3000B6F80AC0283AA7EB0C079DF812C047EA6A
:103F40000C276F819DF81570B689BE1B9DF8147003
:103F500046EA0726AE814FF6D076334000EE103A9F
:103F600030403140B8EE400A84ED040A00EE100AF9
:103F700010B2B8EE400A84ED050A00EE101A0A21CC
:103F8000B8EE400A84ED060AFDF74EFC84ED070A00
:103F900068890421233800B2FDF746FC84ED080A45
:103FA000A8892189084400B21421FDF73DFC84ED65
:103FB000090ABDEEC00A10EE100A94ED080A00B21C
:103FC000BDEEC00A10EE101A09B2CDE9001094ED52
:103FD000070ABDEEC00A10EE100A94ED060A03B2FD
:103FE000BDEEC00A10EE100A94ED050A02B2BDEE55
:103FF000C00A10EE100A94ED040A01B2BDEEC00A28
:1040000010EE100A00B200F015FA05F14800B0F900
:10401000141000EE101AA0F13401B8EEC00A81EDC0
:10402000000AB0F92A2000EE102AB8EEC00A81ED8D
:10403000010AB0F9402000EE102AB8EEC00A81ED66
:10404000020AB0F96C2000EE102AB8EEC01A9FEDFB
:10405000140AC1EE000A10EE902AC1F81220B0F93D
:10406000562000EE902AB8EEE01AC1EE000A10EEDB
:10407000902AC1F80E20B0F9820000EE900AB8EE46
:10408000E01AC1EE000A10EE900AC1F8160007B05F
:10409000F0BD0000040000208A01002088030020F9
:1040A0003333034210B530216A2000F0CBFA0A20E6
:1040B000FEF731FB0D21242000F0C4FA0A20FEF7A0
:1040C0002AFB0E21282000F0BDFA0A20FEF723FB70
:1040D0008E21312000F0B6FA0A20FEF71CFB0121E8
:1040E0000B2000F074F8002000F055F8102801D0E3
:1040F000012010BD0A20FEF70EFB00210A2000F06F
:1041000066F80A2000F047F808B1022010BD0A2026
:10411000FEF701FB00210B2000F059F80B2000F006
:104120003AF808B1032010BD0A20FEF7F4FA242162
:10413000412000F04CF8412000F02DF8242801D057
:10414000042010BD0A20FEF7E6FAC021422000F04C
:104150003EF8422000F01FF8C02801D0052010BD15
:104160000A20FEF7D8FA00212A2000F06BFA0A2074
:10417000FEF7D1FA0021342000F064FA0A20FEF79D
:10418000CAFA062203210E2000F086FA6420FEF708
:10419000C2FA002010BD10B50146322000F052FADC
:1041A0000A20FEF7B8FA8021342000F04BFA0A20EA
:1041B000FEF7B1FA352000F0EDF904460021342075
:1041C00000F040FA0A20FEF7A6FA204610BD70B5AE
:1041D0000D46044600212A2000F034FA0220FEF7A2
:1041E0009AFA2146292000F02DFA0220FEF793FAD0
:1041F0002946642000F026FA0220FEF78CFA81217D
:104200002A2000F01FFABDE870400A20FEF783BAAA
:10421000104910B54FF4FA72A1F1180005F011FD24
:104220000C490D4A1839A1F1180041601288028129
:104230000A4AC2600A4A0261A0F59270016000F168
:104240000A0141600021A0F8D410018180F8D21049
:1042500010BD000048230020CC02002044140020A0
:104260004418002037B5044690F83A001346202839
:1042700001D0212826D1019A02B3FBB194F838006D
:1042800001281FD0012084F83800A262A3850025F0
:10429000E56394F83A00212812D0222084F83A00ED
:1042A0002168606B091DFEF7D7F92068416941F06C
:1042B0004001416184F8385000203EBD01203EBDE0
:1042C0002320EBE702203EBD10B50368DC6844F014
:1042D0001004DC60FFF7C6FF002010BD38B50D46A6
:1042E000044602F0DDFA20680168C9065ED501685F
:1042F00040680090606B02682D4882420AD02D48C9
:10430000824207D02A486030824203D02948603078
:10431000824201D1202322E025481830C314824272
:104320001DD024481830824219D02148783082426A
:1043300015D020487830824211D01D489B02303081
:1043400082420CD01B483030824208D0184890304E
:10435000824204D017489030824200D09B011068FE
:1043600020F001001060606B1249006848318842FB
:1043700002D91048001F05E00D49A831884203D931
:104380000C480838036008E0094A094948321039E6
:10439000904201D9CB6000E08B60606B00684560A3
:1043A000606B0068016841F00101016038BD0000E8
:1043B00010600240106402402DE9F04F0024DDE956
:1043C0000C76DDE90A9ADDF824C0DDF838B006E0A5
:1043D000C4F10208641C00F80850032C02DA0D5DD9
:1043E000002DF5D110F8031F62F30201017001885E
:1043F00063F38911018041786CF3850141708288F3
:1044000069F309028280B0F805206AF38C02A0F8F3
:104410000520C18867F34F11C180B0F8091066F319
:104420008C01A0F8091042896BF34F124281BDE85C
:10443000F08F00002DE9F0430026DDE90789DFF861
:1044400004C101250CEB45043CF8157024F8027CEE
:10445000E78AA782A78D6785B4F84270A4F84070F8
:10446000B4F85870A4F856706D1CB4F86E70EDB2C4
:10447000A4F86C700A2DE5D3ACF81200ACF8281043
:10448000ACF83E20ACF85430ACF86A80ACF88090C0
:1044900000203CF91010401CC0B20E440A28F8D38A
:1044A0000A2296FBF2F0ACF81400002108460CEB4F
:1044B0004003401CB3F91630C0B219440A28F6D3A1
:1044C00091FBF2F0ACF82A00002108460CEB400307
:1044D000401CB3F92C30C0B219440A28F6D391FB22
:1044E000F2F0ACF84000002108460CEB4003401C01
:1044F000B3F94230C0B219440A28F6D391FBF2F066
:10450000ACF85600002108460CEB4003401CB3F900
:104510005830C0B219440A28F6D391FBF2F0ACF837
:104520006C00002108460CEB4003401CB3F96E30D0
:10453000C0B219440A28F6D391FBF2F0ACF882001D
:10454000BDE8F083D003002030B585B000241422EC
:104550000E496846FBF746FE6420FEF7DCF875203E
:1045600000F018F80A496D46087005EB44004178E0
:1045700015F8140000F066F80120FEF7CCF8641C72
:10458000E4B20A2CF1D305B0002030BD18A1000818
:1045900004000020F8B5104E0446002240213046A9
:1045A000FEF7B6F944F080000C4C3725E21C207170
:1045B0000123511C0A480095FEF7AAFDE21C0123C5
:1045C000511C07480095FEF7A3FD0122402130460B
:1045D000FEF79EF9E078F8BD0014024004000020C8
:1045E000A41F0020F8B5134C15460E4607460022BE
:1045F00040212046FEF78CF90F4847F0800237270C
:10460000827100F5BA7001230270A0F26F12511C82
:104610000A480097FEF77CFD2B46324608490748BA
:104620000097FEF775FD012240212046FEF770F944
:104630000020F8BD0014024004000020A41F002048
:1046400078010020F8B5114D0E46044600224021A5
:104650002846FEF75DF904F07F000D4C3727621CF9
:10466000A0700123511C0B480097FEF751FDA67066
:10467000621C0123511C07480097FEF749FD0122E7
:1046800040212846FEF744F90020F8BD00140240FE
:1046900004000020A41F002070B50E460446014609
:1046A00015462820FFF7CEFF0220FEF734F80A2136
:1046B0002920FFF7C7FF0220FEF72DF80121642013
:1046C000FFF7C0FF0220FEF726F844F08001252006
:1046D000FFF7B8FF0220FEF71EF831462620FFF74D
:1046E000B1FF0220FEF717F803213420FFF7AAFFDD
:1046F0000220FEF710F803216720FFF7A3FF022036
:10470000FEF709F881212A20FFF79CFF0620FEF71B
:1047100002F845F080012720FFF794FFBDE87040C4
:104720000720FDF7F8BF000070B51E4C8AB01C488A
:10473000206004F1800020631C30606303200025AA
:10474000C4E901054FF4E020C4E9035004F1140169
:104750004FF4A000012681E8610025626562C4E98A
:104760000A562046FDF76EFB08B1FCF7FCFF0195E9
:10477000029503950495CDE90656CDE908650095A7
:1047800005952068416941F002014161694605488B
:10479000FDF724FA002801D0FCF7E5FF0AB070BD50
:1047A00000640040A41E002070B51E4C8AB01C4856
:1047B000206004F1800020631C306063032000252A
:1047C000C4E901054FF4E020C4E9035004F11401E9
:1047D0004FF4A000012681E8610025626562C4E90A
:1047E0000A562046FDF72EFB08B1FCF7BCFF0195E9
:1047F000029503950495CDE90656CDE90865009527
:1048000005952068416941F002014161694605480A
:10481000FDF7E4F9002801D0FCF7A5FF0AB070BD50
:1048200000680040E41E0020194808B5016841F402
:1048300080010160016801F480010091016841F488
:10484000001101600068002200F4001000900121B6
:104850003A20FEF791F83A20FEF782F8002211463E
:104860003B20FEF789F83B20FEF77AF8002203216F
:104870000C20FEF781F80C20FEF772F800220221CE
:104880000E20FEF779F8BDE808400E20FEF768B864
:10489000303802402DE9F04FB94887B00024006855
:1048A000B74940F010000860086800F0100005905B
:1048B000086840F040000860086800F0400005907B
:1048C000086840F002000860086800F002000590E7
:1048D0000846006840F001000860086800F0010028
:1048E0000590086840F008000860086800F00800BB
:1048F0000590086840F480700860086800F48070D3
:1049000005900846006840F080000860086800F0E4
:1049100080000590086840F020000860086800F0FA
:1049200020000590086840F0040008600868002234
:1049300000F0040005904FF410719248FDF7E8FF75
:10494000914F002244F20C013846FDF7E1FF4FF48D
:10495000005B002259468D48FDF7DAFFDFF8309200
:104960000022C0214846FDF7D3FFDFF828A200222D
:1049700020215046FDF7CCFF0C2001250326CDE970
:104980000005CDE9024669463846FDF7CFFE4FF0F7
:1049900002088148CDF80080CDE901046946384617
:1049A000FDF7C4FECDF800B0CDE901546946774863
:1049B0000394FDF7BBFEC0200090CDE90154694689
:1049C00048460394FDF7B2FE1D20CDE90005CDE970
:1049D000025669467148FDF7A9FEA802CDE9000418
:1049E00069466F480294FDF7A1FEA8030090CDE947
:1049F0000154694648460394FDF798FE03960095D6
:104A0000CDE9015469464846FDF790FECDF8008097
:104A10000396CDE9015469464846FDF787FE2027F5
:104A20000097CDE90154694650460394FDF77EFE98
:104A30004FF00409CDF80090CDE901546946504685
:104A40000394FDF773FECDF800800396CDE9015481
:104A500069464E48FDF76AFECDF800900396CDE911
:104A6000015469464948FDF761FE4FF00808CDF84A
:104A700000800396CDE9015469464448FDF756FE8F
:104A80004FF0100ACDF800A00396CDE90154694615
:104A90003E48FDF74BFE00970396CDE90154694669
:104AA0003A48FDF743FE4020CDE90005CDE9024636
:104AB00069463648FDF73AFE8020CDE90005CDE98C
:104AC000024669463148FDF731FE2802CDE900056E
:104AD000CDE9024669462D48FDF728FECDF8009045
:104AE0000396CDE9015469462648FDF71FFECDF82F
:104AF00000800396CDE9015469462248FDF716FE71
:104B0000CDF800A00396CDE9015469461D48FDF794
:104B10000DFE00970396CDE9015469461948FDF74B
:104B200005FE00970396CDE901541E4C69462046C8
:104B3000FDF7FCFD012204211248FDF7E9FE0122E8
:104B400008211048FDF7E4FE012210210D48FDF771
:104B5000DFFE012220210B48FDF7DAFE0122594633
:104B60000A48FDF7D5FE002220212046FDF7D0FEA1
:104B7000002201210948FDF7CBFE07B0BDE8F08F08
:104B800030380240001C0240001002400018024071
:104B90000014024000000240000011100008024012
:104BA000000C024000200240104810B50E49016080
:104BB0004FF48271416000218160C1604FF4007246
:104BC0000161C0E905123022C0E90721416281621A
:104BD0000A21C162FEF736FA002803D0BDE8104072
:104BE000FCF7C1BD10BD000000500140A41F002013
:104BF00010B5354894B04FF0804101605A2100242F
:104C0000C0E9011444F62061C0E903144461FEF7D1
:104C1000D4FB08B1FCF7A7FD4FF480500E900EA90D
:104C20002948FEF769FC08B1FCF79DFD2648FEF710
:104C300040FE08B1FCF797FD129412A92248139484
:104C4000FEF793FB08B1FCF78EFD079408940994D6
:104C50004FF400500A94CDE90B4007A91A480D946F
:104C6000FEF762FB08B1FCF77EFD60200090182083
:104C7000CDE9010403940494059400226946124886
:104C80000694FEF7AEFD08B1FCF76DFD04226946FF
:104C90000D48FEF7A6FD08B1FCF765FD0822694640
:104CA0000948FEF79EFD08B1FCF75DFD0C22694640
:104CB0000548FEF796FD08B1FCF755FD0248FEF7E2
:104CC00047FD14B010BD0000BC2000201CB50F48EB
:104CD0000D49002401604FF47A71C0E90114592193
:104CE000C160FEF76AFB08B1FCF73DFD0094694620
:104CF00006480194FEF739FB08B1FCF734FD034880
:104D0000FEF7EEFB1CBD0000001000403421002027
:104D10000848074901604FF4E1314160002181609A
:104D20000C22C160C0E904128161C161FEF7DCBEE2
:104D300000780040441D00200D4810B50B4901606B
:104D40000C49416000214FF480628160C0E9031288
:104D50000422C0E90521C161FEF7C6FE002803D088
:104D6000BDE81040FCF7FFBC10BD00000010014082
:104D7000441C0020A08601000C4810B50A490160BF
:104D80004FF4E1314160002181600C22C160C0E933
:104D900004128161C161FEF7A7FE002803D0BDE8BF
:104DA0001040FCF7E0BC10BD00140140041D0020C1
:104DB0000B480A4901604FF4803141600021816055
:104DC000C160016101224161C0E90612054A016228
:104DD000C0E90912C1620163FCF701BE0020014075
:104DE000AC2100200100000FFEE770470907090E03
:104DF000002806DA00F00F0000F1E02080F8141D12
:104E0000704700F1E02080F8001470472DE9F0436E
:104E10002DED048B83B005F023F8904D687A10B126
:104E20009FED8F0A01E0B7EE000A85ED0F0A687B5F
:104E30008C4F8D4C4FF001084FF40056DFED8B8AFC
:104E400080B185F8028085F801804EF69000E882F6
:104E5000012231463846FDF75BFD3E212160C5F851
:104E6000308059E0A87B80B185F8028085F8018008
:104E70004EF64050E882012231463846FDF748FDA3
:104E80003A2102202160286346E0687C40F6C4197C
:104E90000024A0B1AC70002300941A464FF40071B6
:104EA00073480194FBF7E9FE6C70002231463846E6
:104EB000FDF72EFD484601F025FC2C632CE0287CF4
:104EC00058B1287840BB85F80080E878042140423A
:104ED000E8706848FDF718FD1EE0E87C38B14FF433
:104EE000967001F00FFC484601F008FC14E062489F
:104EF000418A11B141F288301EE0018A11B140F6B9
:104F0000B83019E0AC62EC64C5ED0D8A2C70EC622F
:104F1000007A02280ED06C6268792C798046AF79CD
:104F20002043EE79384330437DD0287A30B1B7EE54
:104F3000080A05E04FF47A706862EDE7B6EE000A01
:104F400085ED0E0AA4EB080000EE100A95ED108A1C
:104F5000F01BF8EEC00AB0EE000A00EE808A00EE08
:104F6000900AF8EEE00A85ED108A95ED119A00EEB0
:104F7000809A85ED119AA86BFBF71DFB9FED3F1BF7
:104F800053EC112BFBF7F9F9FBF758FB01EE100A74
:104F90009FED3C0ADFED3C1A85ED0E1A61EE000A2A
:104FA000F4EEC80AF1EE10FA02D2C5ED100A08E0DC
:104FB00021EE210AB4EEC80AF1EE10FA01DD85ED0A
:104FC000100A32483249444515D195ED100AB1EE28
:104FD000042A10EE102A824202DD30EE420A05E079
:104FE00010EE102A8A4204D930EE020A85ED100A2A
:104FF00001E0C5ED108AF4EEC90AF1EE10FA02D212
:10500000C5ED110A08E021EE210AB4EEC90AF1EE5D
:1050100010FA01DD85ED110ABE4214D195ED110A99
:1050200010EE102A00E016E0F2EE040A824202DDE1
:1050300030EE600A05E010EE100A884208D930EE22
:10504000200A85ED110A03B0BDEC048BBDE8F083A6
:10505000C5ED118AF7E7C5ED108AF9E78801002050
:105060009A99993E00180240A40200200000000016
:10507000E41E002000080240A8130020CDCCCCCCB8
:10508000CCCCFC3F00002544000025C4000020419A
:10509000000020C170B50D462DED088BB0EE409A92
:1050A000F0EE609AB0EE418AF0EE618A90ED0E0B60
:1050B000044653EC102B51EC180BFBF7A7FA02D265
:1050C00094ED0E8B12E094ED0E0B51EC100B81F071
:1050D000004153EC182BFBF799FA07D294ED0E0B15
:1050E00051EC100B81F0004141EC180B012D01D067
:1050F000EDB3B6E053EC192B51EC180BFBF737F975
:1051000041EC180B84ED1A8B94ED200B53EC182B0B
:1051100051EC100BFBF78AF841EC190B51EC180B12
:1051200084ED209B94ED180B53EC102BFBF71FF92B
:1051300041EC1A0B53EC182B84ED22AB84ED188B49
:1051400094ED000B51EC100BFBF717F994ED020BEB
:1051500041EC180B53EC192B51EC100BFBF70DF92C
:1051600041EC190B94ED040B53EC1A2B00E02AE0F0
:1051700051EC100BFBF701F994ED240B41EC1A0BE9
:1051800051EC100BFBF75AFA0BEE100A51EC190B0D
:10519000FBF754FA00EE100AF0EE4B0A04F028FB7D
:1051A00094ED260B51EC100BFBF748FA0BEE100AAE
:1051B00051EC180BFBF742FA00EE100AF0EE4B0A26
:1051C00004F016FB41E053EC192B51EC180BFBF7E4
:1051D000CEF841EC180B84ED1A8B94ED200B53ECB8
:1051E000182B51EC100BFBF721F841EC190B51EC8B
:1051F000180B84ED209B94ED180B53EC102BFBF750
:10520000B6F841EC1A0B53EC182B84ED22AB84ED6D
:10521000188B94ED000B51EC100BFBF7AEF894EDEE
:10522000020B41EC180B53EC192B51EC100BFBF754
:10523000A4F894ED040B41EC190B53EC1A2B51EC30
:10524000100BFBF79AF841EC1A0B53EC192B51ECAD
:10525000180BFAF7EBFF53EC1A2BFAF7E7FFC4E948
:10526000100194ED081B94ED100B53EC112B51EC35
:10527000100BFBF7CBF903D294ED080B84ED100B68
:1052800094ED080B51EC100B81F0004194ED101BD4
:1052900053EC112BFBF7BAF907D294ED080B51EC44
:1052A000100B81F00041C4E9100194ED180B84ED5E
:1052B000160B94ED1A0B84ED180BBDEC088B70BD2A
:1052C00010B504462DED068BB0EE418AF0EE618AF2
:1052D000B0EE40AAF0EE60AA9FED459B90ED0E1B4C
:1052E00051EC180B53EC112BFBF790F902D294ED13
:1052F0000E8B12E094ED0E1B51EC110B81F000416E
:1053000053EC182BFBF782F907D294ED0E1B51ECEE
:10531000110B81F0004141EC180B53EC1A2B51ECAE
:10532000180BFBF724F841EC180B51EC190B84ED2A
:10533000188B53EC182BFAF779FF94ED000B41EC26
:10534000190B53EC182B51EC100BFBF716F894EDDE
:10535000020B41EC1A0B53EC192B51EC100BFBF721
:105360000CF894ED160B41EC190B53EC102B51EC8F
:10537000180BFAF7FCFF94ED041B53EC112BFAF712
:10538000FCFF41EC180B53EC192B51EC1A0BFAF7FC
:105390004DFF53EC182BFAF749FF41EC100B84ED4D
:1053A000100B94ED081B53EC112BFBF72FF903D2D4
:1053B00094ED080B84ED100B94ED080B51EC100BE1
:1053C00081F0004194ED101B53EC112BFBF71EF9FB
:1053D00007D294ED080B51EC100B81F00041C4E9A9
:1053E000100194ED180B84ED160BBDEC068B10BD6F
:1053F000000000000000000080EC100B9FED060B89
:1054000080ED100B80ED160B80ED180B80ED1A0B64
:1054100080ED1C0B70470000000000000000000041
:1054200000B52DED0E8B9FEDFE9BB0EE497AF0EEB0
:10543000697A9FEDFD8BB0EE494AF0EE694AB0EE15
:10544000486AF0EE686AB0EE485AF0EE685AB0EE7C
:10545000483AF0EE683AB0EE482AF0EE682AB0EE2C
:10546000481AF0EE681A9FEDF2CBB0EE4C0AF0EE5F
:105470006C0AF148FFF7C0FFEF48B0EE497AF0EE52
:10548000697AB0EE486AF0EE686AB0EE485AF0EE1B
:10549000685AB0EE494AF0EE694AB0EE483AF0EE8A
:1054A000683AB0EE482AF0EE682AB0EE481AF0EEFC
:1054B000681AB0EE4C0AF0EE6C0AA030FFF79CFFC1
:1054C000B0EE497AF0EE697AB0EE486AF0EE686ABA
:1054D000B0EE485AF0EE685AB0EE494AF0EE694A2A
:1054E000B0EE483AF0EE683AB0EE482AF0EE682A9C
:1054F000B0EE481AF0EE681AB0EE4C0AF0EE6C0A04
:10550000CE48FFF779FFCD48B0EE497AF0EE697AE0
:10551000B0EE486AF0EE686AB0EE485AF0EE685AAB
:10552000B0EE494AF0EE694AB0EE483AF0EE683A19
:10553000B0EE482AF0EE682AB0EE481AF0EE681A8B
:10554000B0EE4C0AF0EE6C0AA030FFF755FF9FED6D
:10555000BCABB0EE486AF0EE686AB0EE4A7AF0EEA4
:105560006A7AB0EE485AF0EE685AB0EE4A4AF0EE67
:105570006A4AB0EE483AF0EE683AB0EE482AF0EEE9
:10558000682A9FEDB11B9FEDB2BBB348B0EE4B0A4A
:10559000F0EE6B0AFFF730FFB0EE4A7AF0EE6A7A6F
:1055A000B0EE486AF0EE686AB0EE485AF0EE685A1B
:1055B000B0EE4A4AF0EE6A4AB0EE483AF0EE683A87
:1055C000B0EE482AF0EE682A9FEDA41BA248B0EE88
:1055D0004B0AF0EE6B0AA030FFF70EFF9FEDA1AB78
:1055E000B0EE486AF0EE686AB0EE4A7AF0EE6A7A97
:1055F000B0EE485AF0EE685AB0EE494AF0EE694A09
:10560000B0EE483AF0EE683AB0EE482AF0EE682A7A
:10561000B0EE481AF0EE681AB0EE4C0AF0EE6C0AE2
:105620009248FFF7E9FE9148B0EE4A7AF0EE6A7AC6
:10563000B0EE486AF0EE686AB0EE485AF0EE685A8A
:10564000B0EE494AF0EE694AB0EE483AF0EE683AF8
:10565000B0EE482AF0EE682AB0EE481AF0EE681A6A
:10566000B0EE4C0AF0EE6C0AA030FFF7C5FEB0EECB
:105670004A7AF0EE6A7AB0EE486AF0EE686AB0EE06
:10568000485AF0EE685AB0EE494AF0EE694AB0EE78
:10569000483AF0EE683AB0EE482AF0EE682AB0EEEA
:1056A000481AF0EE681AB0EE4C0AF0EE6C0A704838
:1056B000FFF7A2FE6E48B0EE4A7AF0EE6A7AB0EEDC
:1056C000486AF0EE686AB0EE485AF0EE685AB0EEFA
:1056D000494AF0EE694AB0EE483AF0EE683AB0EE68
:1056E000482AF0EE682AB0EE481AF0EE681AB0EEDA
:1056F0004C0AF0EE6C0AA030FFF77EFE9FED5D7B5A
:10570000B0EE486AF0EE686A9FED5C5B9FED5D4B22
:10571000B0EE483AF0EE683AB0EE482AF0EE682A69
:10572000B0EE481AF0EE681A9FED580B5948FFF793
:1057300063FE9FED597BB0EE486AF0EE686AB0EE0A
:10574000485AF0EE685A9FED56ABB0EE483AF0EE8C
:10575000683AB0EE4A4AF0EE6A4AB0EE482AF0EEF5
:10576000682A9FED511B9FED520B5348FFF744FEF3
:105770009FED52CBB0EE486AF0EE686AB0EE4C7A1C
:10578000F0EE6C7AB0EE485AF0EE685A9FED4D4B51
:10579000B0EE483AF0EE683AB0EE482AF0EE682AE9
:1057A0009FED4A1B9FED4B0B4348A030FFF724FEB3
:1057B0009FED4ADBB0EE486AF0EE686AB0EE4D7AD3
:1057C000F0EE6D7AB0EE485AF0EE685A9FED45EB78
:1057D000B0EE483AF0EE683AB0EE4E4AF0EE6E4A5D
:1057E0009FED422B9FED431B9FED440B4548FFF778
:1057F00003FEB0EE4C7AF0EE6C7AB0EE486AF0EE52
:10580000686AB0EE485AF0EE685A9FED3F4BB0EE32
:10581000483AF0EE683AB0EE482AF0EE682A77E0AF
:10582000000000000088C3400000000000000000ED
:105830000000000000001840B8070020F808002011
:10584000000000000064C940F168E388B5F8143F27
:105850000000000000002240380A0020D5CC5A0A7F
:1058600048FB0F3F00000000005CBC4078100020A7
:10587000B81100200000000040CCF3400000000000
:10588000000024400000000080842E410000000041
:105890000000F43FF8120020000000FC83D797417D
:1058A00000000000004CDD400000000000004E4001
:1058B0000000000000806640780B0020000000001F
:1058C0007E842E41000000000040CF400000000018
:1058D000000000400000000000002E40000000001A
:1058E0000058BB40000000000094E1409A9999994B
:1058F0009999A93F9A9999999999C93F9A9999998A
:105900009999F13FB80C0020000000000088B340D6
:105910009FED461B9FED470B4848FFF76DFDB0EE2E
:105920004C7AF0EE6C7AB0EE486AF0EE686AB0EE4F
:10593000485AF0EE685A9FED424B4048B0EE483A64
:10594000F0EE683AB0EE482AF0EE682A9FED3E1B72
:105950009FED3F0BA030FFF74FFDB0EE4D7AF0EE1C
:105960006D7AB0EE486AF0EE686AB0EE485AF0EE32
:10597000685AB0EE4E4AF0EE6E4AB0EE483AF0EE9B
:10598000683AB0EE482AF0EE682AB0EE481AF0EE17
:10599000681A9FED310B3248FFF72EFD9FED317BEA
:1059A000B0EE486AF0EE686AB0EE485AF0EE685A17
:1059B000B0EE494AF0EE694AB0EE483AF0EE683A85
:1059C000B0EE482AF0EE682AB0EE481AF0EE681AF7
:1059D000B0EE4B0AF0EE6B0A2448FFF70DFDB0EE77
:1059E0004A7AF0EE6A7AB0EE486AF0EE686AB0EE93
:1059F000485AF0EE685AB0EE4A4AF0EE6A4AB0EE03
:105A0000483AF0EE683AB0EE482AF0EE682AB0EE76
:105A1000481AF0EE681ABDEC0E8B11489FED140B7E
:105A2000A0305DF804EBFFF7E7BC000000000000C9
:105A30000000E0BF00000000008040C0580D0020C2
:105A400000000000F069F8409A9999999999B93F36
:105A5000666666666666E63F000000000000F0BF0E
:105A6000980E0020000080FF64CDCD41D80F0020AB
:105A7000CDCCCCCCCCCCFC3F7CB5002415484FF42D
:105A8000007523460470009422462946124801946A
:105A9000FBF7F3F8002300941A46691E0E480194A0
:105AA000FBF7EBF8002300941A4629460B480194B3
:105AB000FBF7E3F80B489FED0A0A0B4980ED060A55
:105AC0009FED0A0B0C600B4981ED000BFF21C170AB
:105AD0007CBD0000D0020020A41E0020E41E002097
